:03000000020003F8
:0C000300787FE4F6D8FD75812002004AE9
:06008F00C1800208000020
:1001100075BA8090FFF2E4F090FFF07417F0A374CA
:100120006FF090FF00E4F0A3F0A3F0A304F0A37439
:0C01300080F0E4F5BA75FEC0D2AF80FE8E
:0300B3000200B692
:0800B600C0E0C083C082C0D08D
:1000BE00E5F130E74453F17F3000170509E509708B
:1000CE00020508C3946FE50864809497401BC20034
:1000DE008017E509150970021508D3E5099401E5A5
:1000EE0008648094805002D20043BA8090FF02E5EB
:0900FE0008F0A3E509F053BA7FF4
:09010700D0D0D082D083D0E032C8
:10000F00020110E493A3F8E493A34003F68001F2F6
:10001F0008DFF48029E493A3F85407240CC8C333F2
:10002F00C4540F4420C8834004F456800146F6DFC1
:10003F00E4800B010204081020408090008FE47EC2
:10004F00019360BCA3FF543F30E509541FFEE493B6
:10005F00A360010ECF54C025E060A840B8E493A37D
:10006F00FAE493A3F8E493A3C8C582C8CAC583CAA8
:10007F00F0A3C8C582C8CAC583CADFE9DEE780BE60
:01009500006A
:00000001FF
