:030000000217A440
:0C17A400787FE4F6D8FD75813B0215F358
:1015F30012132812162D7BFF7A0679F3E4FDFF12EE
:1016030015597BFF7A0679F3E4FDFF1215597F1014
:101613007E271216DE7BFF7A0F79B3E4FDFF1215E6
:0A162300597F107E271216DE80D8D2
:1016DE00D3EF9400EE940040147D6E7C00ED1D70EF
:0D16EE00011CED4C70F7EF1F70E61E80E34D
:0116FB0022CC
:10168C00F582E435F0F583E5822403F582E58334B5
:06169C0000F583E493FF5A
:1016A2008F1B1217877F781217617F40121761AF65
:0716B2001B1217610217B0C3
:0317170024B0FFFC
:10171A008F1C1217877F78121761E4FF121761AFC7
:07172A001C1217610217B049
:1016FC008F1BED121717E51B54F0C4540F4410FF49
:0B170C0012171AE51B540FFF02171AFA
:02165D008F14E8
:10165F00E4F515E515121717E4FF12171A7F10128C
:10166F00171AE4F516AF141216A20516E516C39451
:0C167F008040F20515E515C3940840D723
:01168B00223C
:10162D00E4F514E51424B0FF12171AE4FF12171A8B
:10163D007F1012171AE4F515E4FF1216A20515E531
:0F164D0015C3948040F20514E514C3940840D4EB
:01165C00226B
:101328007FF47E011216DE7FAE12171AE4FF121741
:101338001A7F1012171A7F4012171A7F8112171A74
:101348007FCF12171A7FA112171A7FC812171A7F98
:10135800A612171A7FA812171A7F3F12171A7FD3DF
:1013680012171AE4FF12171A7FD512171A7F801264
:10137800171A7FD912171A7FF112171A7FDA121764
:101388001A7F1212171A7FDB12171A7F4012171AC8
:101398007F2012171A7F0212171A7F8D12171A7FD1
:1013A8001412171A7FA412171A7FA612171A7FAFE2
:0E13B80012171AE4FF12165DE4FDFF0216FC88
:0A145C008F218D228B238A2489251D
:10146600E4F526F527F528AB23AA24A925852882A5
:10147600758300121288606A24E0F526E521D3946C
:10148600784005E4F5210522AD22AF211216FCE4D1
:10149600F52775F010E526A4252712168C0527E5F5
:1014A60027C3940840ECE52204FDAF211216FCE4A4
:1014B600F52775F010E526A42527F582E435F0F525
:1014C60083E582240BF582E583340012169D0527F9
:1014D600E527C3940840DB74082521F52105280279
:0214E600146D83
:0114E80022E1
:0414E9008F388D3972
:1014ED00E4F53AF53BEB24E0F53AE538D394784052
:1014FD0005E4F5380539AD39AF381216FCE4F53B86
:10150D0075F010E53AA4253B12168C053BE53BC35F
:10151D00940840ECE53904FDAF381216FCE4F53BB8
:10152D0075F010E53AA4253BF582E435F0F583E539
:10153D0082240BF582E583340012169D053BE53BB5
:0B154D00C3940840DB74082538F53813
:011558002270
:041731008F1DA9055A
:101735007F017E00AD0119ED6009AD1D7C0012121F
:03174500B580F17B
:01174800227E
:0813C6008F298D2A8A2B8B2C44
:1013CE00E4F530C3E52B64809480500FC3E4952C74
:1013DE00F52CE4952BF52B7B2D80067B20AD2AAFCB
:1013EE00291214E9E4F52EE52EC3952D505FC3E5C1
:1013FE002D952E14FD7F0A121731AC2BAD2CCFCDAF
:10140E00CFCECCCE1212C77C007D0A1212C78D2F02
:10141E00E5307020E52D14FFE52EC39F5016E52F05
:10142E00700FE52E75F008A425292408FF7B208077
:10143E0013753001E52E75F008A425292408FFE563
:0D144E002F2430FBAD2A1214E9052E809AE0
:01145B00226E
:0A1559008F148D158B168A17891860
:10156300E4F519F51AF51AE515251AFDAF14121647
:10157300FCE4F519AB16AA17A91875F040E51AA4EF
:101583002519F582E435F0F583121288FF1216A2AD
:101593000519E519C3944040DB051AE51AC39408FD
:0215A30040C541
:0115A5002223
:0A15A6008F318D328B338A34893582
:1015B000E4F536F537F537E5322537FDAF3112164C
:1015C000FCE4F536AB33AA34A93575F010E537A441
:1015D0002536F582E435F0F583121288FF1216A243
:1015E0000536E536C3941040DB0537E537C3940272
:0215F00040C5F4
:0115F20022D6
:0A11B3008F088D098B0A8A0B890C46
:1011BD00E4F50DF50EF50FF510F5118508128509FD
:1011CD0013AB0AAA0BA90C85108275830012128825
:1011DD00700302128724E0F50D7009751101851257
:1011ED0008021282E511703FF50FE509250FFDAFDD
:1011FD00081216FCE4F50E75F008E50FA4250EF5A2
:10120D0082E435F0F58375F010E50D12131C1216FE
:10121D0093050EE50EC3940840DD050FE50FC3944D
:10122D000240C77408804AE4F50FE5092402250F32
:10123D00FDAF081216FCE4F50E75F010E50FA425B0
:10124D000EF582E435F0F58375F040E50D12131CB3
:10125D00E58224F3F582E583340812169D050EE52B
:10126D000EC3941040D3050FE50FC3940440BB7417
:0A127D00102508F50805100211CE37
:011287002244
:1000030000000000000000000000000000000000ED
:10001300000000F800000000000000333000000082
:1000230000100C06100C0600000000000000000089
:1000330040C07840C0784000043F04043F040400FB
:10004300007088FC08300000001820FF211E00000B
:10005300F008F000E018000000211C031E211E0020
:1000630000F00888700000001E21232419272110A6
:1000730010160E0000000000000000000000000049
:10008300000000E0180402000000000718204000F0
:1000930000020418E00000000040201807000000E0
:1000A300404080F0804040000202010F0102020044
:1000B300000000F0000000000101011F0101010028
:1000C300000000000000000080B07000000000008D
:1000D3000000000000000000000101010101010116
:1000E30000000000000000000030300000000000AD
:1000F3000000000080601804006018060100000082
:1001030000F018080818E000000F102030180F0046
:10011300006020F0F80000000000003F3F000000F6
:100123000030180808D870000030383433313000FC
:100133000030180888D870000018102021130E0012
:100143000000806030F8000004070504043F040445
:1001530000F098C8888808000819302030190F006B
:100163000080C0F098800000001F312020301F065F
:100173000008080888E838000000303E030000004B
:1001830000F0888888D87000041F312121311E00B7
:10019300E0F008080898F0000001233A0F0300007C
:1001A300000000C0C000000000000030300000006C
:1001B30000000080000000000000806000000000DC
:1001C30000008040201008000001020408102000F5
:1001D3004040404040404000040404040404040040
:1001E30000081020408000000020100804020100D5
:1001F300007048080808F0000000003036010000D5
:10020300C030C828E810E0000718272423140B0087
:100213000000C038E0000000203C23020227382001
:1002230008F8888888700000203F202020110E00E5
:10023300C0300808080838000718202020100800DC
:1002430008F808080810E000203F202020100F00C5
:1002530008F88888E8081000203F20202320180091
:1002630008F88888E8081000203F200003000000F9
:10027300C03008080838000007182020221E02009A
:1002830008F808000008F808203F210101213F2059
:10029300000808F8080800000020203F2020000084
:1002A30000000808F8080800C08080807F00000074
:1002B30008F888C028180800203F200126382000AD
:1002C30008F8080000000000203F20202020300014
:1002D30008F8F800F8F80800203F003F003F20002E
:1002E30008F830C00008F808203F200007183F0036
:1002F300E01008080810E0000F10202020100F0065
:1003030008F808080808F000203F21010101000057
:10031300E01008080810E0000F18242438504F009C
:1003230008F8888888887000203F2000030C30205C
:1003330000708808080838000038202121221C009A
:10034300180808F8080818000000203F20000000E3
:1003530008F808000008F808001F202020201F00CC
:100363000878880000C83808000007380E0100002C
:10037300F80800F80008F800033C0700073C0300F6
:10038300081868808068180820302C03032C30205C
:100393000838C800C83808000000203F20000000CB
:1003A30010080808C8380800203826212020180023
:1003B300000000FE020202000000007F40404000F7
:1003C300000C30C000000000000000010638C0002F
:1003D30000020202FE000000004040407F000000D7
:1003E30000000402020204000000000000000000FC
:1003F30000000000000000008080808080808080FA
:1004030000020204000000000000000000000000E1
:1004130000008080808000000019242222223F20D7
:1004230008F8008080000000003F112020110E001A
:100433000000008080800000000E112020201100A9
:10044300000000808088F800000E112020103F205B
:100453000000808080800000001F222222221300DF
:10046300008080F0888888180020203F202000002A
:100473000000808080808000006B949494936000DF
:1004830008F8008080800000203F210000203F20EA
:1004930000809898000000000020203F20200000EA
:1004A300000000809898000000C08080807F0000DA
:1004B30008F8000080808000203F24022D302000B7
:1004C300000808F8000000000020203F2020000062
:1004D3008080808080808000203F20003F20003F7C
:1004E3008080008080800000203F210000203F208A
:1004F3000000808080800000001F202020201F003B
:10050300808000808000000080FFA12020110E0069
:100513000000008080808000000E112020A0FF805A
:10052300808080008080800020203F212000010007
:10053300000080808080800000332424242419005C
:10054300008080E0808000000000001F2020000069
:100553008080000000808000001F202020103F20AA
:10056300808080000080808000010E30080601003A
:1005730080800080008080800F300C030C300F00DF
:1005830000808000808080000020312E0E3120000A
:10059300808080000080808080818E70180601003A
:1005A30000808080808080000021302C2221300058
:1005B30000000000807C020200000000003F404079
:1005C30000000000FF00000000000000FF0000002A
:1005D3000002027C800000000040403F0000000059
:1005E30000060101020204040000000000000000F4
:1005F3004458C0FF504C8040B08E808FB040800084
:10060300080601FF01068040300F40807F00000094
:100613000060504C43C0300060504C43C030000079
:1006230040484C4A49484840484C4A494848400099
:1006330020104C4754545454545454D404040000CC
:1006430000000000000000000000000F3040F00038
:100653001060028C0000FE9292929292FE000000C3
:1006630004047E01407E42427E427E42427E40003E
:1006730040404242424242FE4242424242404000E5
:1006830080804020100C0300030C10204080800069
:1006930020104C4754545454545454D4040400006C
:1006A30000000000000000000000000F3040F000D8
:1006B300202020FF202080F88040FF2010F0000041
:1006C3001030100F0808003F40405F424443780059
:1006D300202020FF202000F80000FF4040400000C1
:1006E3001030100F0848407F40407F40404040009A
:1006F30000000000000000000000000000000000F7
:100703000F1F3F7FFEFCF8F0E0C0800000000000F8
:1007130000000000000080C0E0F0F8FCFE7F3F1FF7
:100723000F000000000000000000000000000000B7
:1007330000C0F0F8F8FCFCFCFEFEFEFEFEFEFEFE32
:10074300FEFEFEFEFEFFFFFFFFFFFFFFFEFEFEFEBF
:10075300FEFEFEFEFEFFFFFFFFFFFFFFFEFEFEFEAF
:10076300FEFEFEFEFEFEFEFEFEFCFCFCF8F0E0C01C
:10077300FFFFFFFFFFFFFF03010100000000000078
:100783000000000000000000000000000000000066
:100793000000000000000000000000000000000056
:1007A30000000000000000010307FFFFFFFFFFFF41
:1007B300FFFFFFFFFFFFFF0000000060F0F0F0F01D
:1007C300F0F8F8F8F8F8FCFCFC600000000000000A
:1007D3000000000000000060FCFCFCF8F8F8F8F8EA
:1007E300F0F0F0F0F06000000000FFFFFFFFFFFFFC
:1007F300FFFFFFFFFFFFFF000000000003030303F1
:1008030001010101000000000000000000000000E1
:1008130000000000000000000000000000010101D2
:1008230001010303030000000000FFFFFFFFFFFFC0
:10083300FFFFFFFFFFFFFF000000000000000000BC
:100843000000000000000000183C38707070383E53
:100853001F3C787070383C1C18000000000000003A
:1008630000000000000000000000FFFFFFFFFFFF8B
:100873007FFFFFFFFFFFFFF0E0C0C0C0C0C0C0C0EC
:10088300C0C0C0C0C0C0C0C0C0C0C0C0C0C0C0C065
:10089300C0C0C0C0C0C0C0C0C0C0C0C0C0C0C0C055
:1008A300C0C0C0C0C0C0C0C0E0F8FFFFFFFFFFFF73
:1008B300000103070F0F1F1F1F1F1F1F3FFFFFFF16
:1008C300FFFFFF3F1F1F1F1F1F1F1F1F1F1F1F1F75
:1008D3001F1F1F1F1F1F1F1F1F1F1F1F1F3FFFFF45
:1008E300FFFFFFFF7F1F1F1F1F1F1F0F0F070300A8
:1008F30000000000000000000000000000000000F5
:1009030000000000000000000000000000000000E4
:1009130000000000000000000000000000000000D4
:1009230000000000000000000000000000000000C4
:10093300000000000000C0C0C0C0000000000000B4
:100943000000000000000FFFFF1F00000000000078
:10095300000000000000001F1F0000000000000056
:10096300000000000000060F0F060000000000005A
:1009730000000080E0783C1C80E0783C1C00000014
:10098300000003010000000301000000000000005C
:100993000000000000000000000000000000000054
:1009A3000000000000000000000000000000000044
:1009B3000000000000C0000000000000C0000000B4
:1009C30000383838F83F3838383838F83F38380086
:1009D300007070F0FF7070707070F0FF70707000D6
:1009E3000000000F0000000000000F0000000000E6
:1009F30000000000808040F0404080800000000044
:100A03000000001E7FF0C0FF00000C0F0F0000006D
:100A13000000C0C0C00001FF07071EFCF00000007B
:100A2300000003070408087F080C06030100000008
:100A33000080C040C0800000000000C00000000033
:100A43007EFF000000FF7E00E01C030000000000AA
:100A53000001030283611C03F8FE030103FEF80097
:100A63000000000C0300000001070C080C07010044
:100A730000000080C04040C00000000000000000F3
:100A830000007FFFC080603F0F00000000000000F7
:100A9300F8FC03030F3E78E08081710F0101000031
:100AA3000103060C0808080503070E0C0C060300D7
:100AB30000001C1CFC780000000000000000000087
:100AC300000203010000000000000000000000001D
:100AD3000000000000000000000000000000000013
:100AE3000000000000000000000000000000000003
:100AF30000000000000000000000C0603008040097
:100B030000000000000000F0FC0F010000000000E6
:100B1300000000000000001F7FE000000000000054
:100B230000000000000000000001070C1820400036
:100B33000004083060C00000000000000000000056
:100B43000000000000010FFCF000000000000000A6
:100B5300000000000000E0FF1F0000000000000094
:100B6300004020180C0701000000000000000000F6
:100B73000000000000000000000000000000000072
:100B83000000183830604086FF8F4060303818000E
:100B93000000181C0C0602F1FFE102060C1C1800F1
:100BA3000000000000000000000000000000000042
:100BB3000000000000000000000000000000000032
:100BC3000000000000000000FE0000000000000024
:100BD3000000010101010101FF0101010101010007
:100BE3000000000000000000000000000000000002
:100BF30000000000000000000000000000000000F2
:100C030000000000000000000000000000000000E1
:100C130000000000000000000000000000000000D1
:100C23000080C7473F1E00000000000000000000D6
:100C330000000000000000000000000000000000B1
:100C430000000000000000000000000000000000A1
:100C53000001010101010101010101010101010083
:100C63000000000000000000000000000000000081
:100C73000000000000000000000000000000000071
:100C83000000000000000000000000000000000061
:100C93000000000000000000000000000000000051
:100CA3000000060F0F060000000000000000000017
:100CB300000000000000000000000000C0701800E9
:100CC3000000000000000000C0701C0701000000CD
:100CD30000000000C0701C070100000000000000BD
:100CE30000301C07010000000000000000000000AD
:100CF300000000000080C040404080000000000071
:100D03000000F0FE0F01000000000107FEF00000EC
:100D130000003FFFC000000000000080FF3F000014
:100D23000000000103060C08080806030100000088
:100D33000000000000000080C00000000000000070
:100D430000000001010101FFFF000000000000009E
:100D530000000000000000FFFF0000000000000092
:100D63000000000808080C0F0F0C0808080000001A
:100D730000000000804040404040C08080000000F0
:100D830000001E1900000000000000C1FF3E00002B
:100D930000000000804030180C06030100C0000072
:100DA30000000E0D0C0C0C0C0C0C0C0C0E030000B4
:100DB300000000808040404040C0800000000000F0
:100DC30000000F0F000000000080C17F3E00000004
:100DD3000000C0C00000010101030206FCF0000096
:100DE30000000307040808080808040603000000BD
:100DF300000000000000000000C0C0000000000070
:100E0300000000008060100C03FFFF0000000000E2
:100E130000302C262120202020FFFF20202000004E
:100E23000000000000000808080F0F080808000071
:100E330000000000C0C0C0C0C0C0C0C0C0C000002F
:100E4300000000FF008040404040C08000000000E0
:100E53000000C0C30100000000000001FFFC00000F
:100E6300000003040408080808080407030000003E
:100E7300000000000080804040404080800000006F
:100E83000000E0FC0781C0404040C0830300000035
:100E930000007FFF8300000000000001FFFC000052
:100EA3000000000107060C0808080C0603000000F8
:100EB300000000C0C0C0C0C0C0C0C0C0C0C00000EF
:100EC30000000E030000000000E01806010000000F
:100ED300000000000000C0FC030000000000000050
:100EE3000000000000000F0F0000000000000000E1
:100EF3000000000080C040404040C080000000006F
:100F030000003E7FF1C0C080000080417F1E0000D2
:100F130000F0FC0E0201010103070E1EFCF00000AD
:100F2300000103060408080808080406030100007A
:100F330000000080804040404040800000000000EE
:100F430000FCFF030000000000000003FEF80000A7
:100F5300000103070C080808080406E17F1F0000CE
:100F630000000707080808080C060301000000003A
:100F7300000000000000000000000000000000006E
:100F8300000000000000C0E0E0C00000000000001E
:100F9300000000000000000101000000000000004C
:100FA300000000000000060F0F0600000000000014
:100FB300000000000000000000000000000000002E
:100FC300000000000000000000000000000000001E
:100FD300000000000000000000000000000000000E
:100FE30000000000000000C0C0C08000000000003E
:100FF30000000000000000000000000000000000EE
:10100300000000000000008080D0E0E0F0F0F0F885
:10101300F8F8F8F8F8F0F0F0F0E0E0C080A0000095
:10102300000080E0F8FEFF7F1F0F030000000000B8
:1010330000000000000000000000000000000000AD
:101043000000C0F0F8FCFF7F9F0F070303010101BD
:1010530001010101010101030307070F1FBF7FFE08
:10106300FCFF7F3F0F1301000000000000000000A1
:10107300000000000000000000000000000000C0AD
:10108300F8FFFFFF3F070100000000C0F0F8FCFC81
:101093007EBE3E3EBE7E7EFCF8F0E0C00000000057
:1010A300000001000000000000000000000000003C
:1010B300000000000000000000000080E0FCFFFFD3
:1010C300FFFFFFFF00000000000018FFFFFFFFC04D
:1010D3008000000000800001073FFFFFFFF80000D1
:1010E30000000000000000000000000000000000FD
:1010F3000000000000000000C0F0FCFFFF3F4701BC
:10110300073FFFFFFFF0C0000000000403070F1FAD
:101113001F3F3F3F1F1E000000C0FFFFFFFF0000F7
:1011230000000000000000000000000000000000BC
:101133000000000000C0F8FEFFFFFFC7C0E0E0E0D2
:10114300E0E0E4E3EFFFFFFFFEFCF8F4F0F0E0E0A3
:10115300E0E0F0F4F0F8FCFCFF7F3F0F0700000035
:10116300000000000000000000000000000000007C
:10117300000000000003030303030303030303034B
:10118300030303030303030303030303030303032C
:10119300030303030301010000000000000000003B
:1011A300000000000000000000000000000000003C
:0616B900EF25E0FFD290D6
:1016BF00000000000000000000000000000000001B
:0F16CF00000000000000000000000000000022EA
:0F178700D291D2901216BFC2911216BFC29022F9
:0C17B000C291D2901216BFD2910216BF57
:0E179600A2009291D2901216BFC2900216BF0E
:10177600D2901216BFA2919201C2901216BFA20178
:011786002240
:10176100E4FEEF3392911216B9C2901216BF0EBE6B
:0517710008F0021776EC
:10174900E4FFD291FE1216B9A291E4334207C29086
:071759001216BF0EBE08EEE0
:011760002266
:10128800BB010CE58229F582E5833AF583E022501B
:1012980006E92582F8E622BBFE06E92582F8E22265
:0D12A800E58229F582E5833AF583E493227F
:1012B500EF8DF0A4A8F0CF8CF0A428CE8DF0A42E4D
:0212C500FE2207
:1012C700BC000BBE0029EF8DF084FFADF022E4CC0B
:1012D700F875F008EF2FFFEE33FEEC33FCEE9DECD4
:1012E700984005FCEE9DFE0FD5F0E9E4CEFD22ED1A
:1012F700F8F5F0EE8420D21CFEADF075F008EF2F64
:10130700FFED33FD4007985006D5F0F222C398FD54
:051317000FD5F0EA22F1
:0C131C00A42582F582E5F03583F58322DC
:00000001FF
