:030000000200B447
:0C00B400787FE4F6D8FD75810702000398
:1000030075BA8090FFF2E4F090FFF0745DF0A37492
:10001300BFF090FF00E4F0A3F0A37454F0A3745F67
:10002300F0A37480F090FF10E4F0A3F0A3744AF0FF
:10003300A374FFF0A37480F090FF20E4F0A3F0A377
:100043007441F0A3749FF0A37480F090FF30E4F048
:10005300A3F0A37438F0A3743FF0A37480F090FF6F
:1000630040E4F0A3F0A3742EF0A374DFF0A3748034
:10007300F090FF50E4F0A3F0A37425F0A3747FF095
:10008300A304F090FF60E4F0A3F0A3741CF0A37446
:100093001FF0A37480F090FF70E4F0A3F0A3741238
:1000A300F0A374BFF0A37480F0E4F5BA75FE80800A
:0100B300FE4E
:00000001FF
