:101B01004779726F5F583A004779726F5F593A00AF
:0E1B11004163635F583A004163635F593A00D5
:1017DA00121A5F12158D1219D37BFF7A1B7901E455
:1017EA00FDFF1216C17BFF7A1B79097D02E4FF1205
:1017FA0016C17BFF7A1B79117D04E4FF1216C17BA7
:10180A00FF7A1B79187D06E4FF1216C11218537568
:10181A000C04AB29AA28E4FD7F3812162B750C0498
:10182A00AB2BAA2A7D027F3812162B750C04AB2328
:10183A00AA227D047F3012162B750C04AB25AA242C
:09184A007D067F3012162B80C3CD
:101B1F00D3EF9400EE940040147D6E7C00ED1D70A9
:0D1B2F00011CED4C70F7EF1F70E61E80E307
:011B3C002286
:101A3200F582E435F0F583E5822403F582E583340B
:061A420000F583E493FFB0
:101A48008F14121C3C7F78121B737F40121B73AFDC
:071A580014121B73021C7342
:031BA90024B0FF66
:101BAC008F15121C3C7F78121B73E4FF121B73AF52
:071BBC0015121B73021C73DC
:101B3D008F14ED121BA9E51454F0C4540F4410FF7B
:0B1B4D00121BACE514540FFF021BAC90
:021A03008F084A
:101A0500E4F509E509121BA9E4FF121BAC7F1012CE
:101A15001BACE4F50AAF08121A48050AE50AC39497
:0C1A25008040F20509E509C3940840D791
:011A31002292
:1019D300E4F508E50824B0FF121BACE4FF121BACCE
:1019E3007F10121BACE4F509E4FF121A480509E560
:0F19F30009C3948040F20508E508C3940840D466
:011A020022C1
:10158D007FF47E01121B1F7FAE121BACE4FF121BFA
:10159D00AC7F10121BAC7F40121BAC7F81121BACB9
:1015AD007FCF121BAC7FA1121BAC7FC8121BAC7F6F
:1015BD00A6121BAC7FA8121BAC7F3F121BAC7FD3B6
:1015CD00121BACE4FF121BAC7FD5121BAC7F80123B
:1015DD001BAC7FD9121BAC7FF1121BAC7FDA121B37
:1015ED00AC7F12121BAC7FDB121BAC7F40121BAC0D
:1015FD007F20121BAC7F02121BAC7F8D121BAC7FA8
:10160D0014121BAC7FA4121BAC7FA6121BAC7FAFB8
:0E161D00121BACE4FF121A03E4FDFF021B3D9A
:0A16C1008F088D098B0A8A0B890C33
:1016CB00E4F50DF50EF50FAB0AAA0BA90C850F82ED
:1016DB0075830012140A606A24E0F50DE508D394B3
:1016EB00784005E4F5080509AD09AF08121B3DE488
:1016FB00F50E75F010E50DA4250E121A32050EE548
:10170B000EC3940840ECE50904FDAF08121B3DE441
:10171B00F50E75F010E50DA4250EF582E435F0F508
:10172B0083E582240BF582E5833400121A43050E00
:10173B00E50EC3940840DB74082508F508050F0275
:02174B0016D2B4
:01174D002279
:0418C9008F108D11DE
:1018CD00E4F512F513EB24E0F512E510D39478400E
:1018DD0005E4F5100511AD11AF10121B3DE4F51324
:1018ED0075F010E512A42513121A320513E513C372
:1018FD00940840ECE51104FDAF10121B3DE4F51307
:10190D0075F010E512A42513F582E435F0F583E5A5
:10191D0082240BF582E5833400121A430513E51377
:0B192D00C3940840DB74082510F5107F
:01193800228C
:041BC3008F10A905D1
:101BC7007F017E00AD0119ED6009AD107C00121494
:031BD7003780F163
:011BDA0022E8
:08162B008F088D098A0A8B0B60
:10163300E4F50FC3E50A64809480500FC3E4950B6F
:10164300F50BE4950AF50A7B2D80067B20AD09AFE7
:10165300081218C9E4F50DE50DC3950C505FC3E5F9
:101663000C950D14FD7F0A121BC3AC0AAD0BCFCD35
:10167300CFCECCCE1214497C007D0A1214498D0EB4
:10168300E50F7020E50C14FFE50DC39F5016E50E22
:10169300700FE50D75F008A425082408FF7B208052
:1016A30013750F01E50D75F008A425082408FFE55F
:0D16B3000E2430FBAD091218C9050D809AF8
:0116C0002207
:0A1939008F3C8D3D8B3E8A3F8940B4
:10194300E4F541F542F542E53D2542FDAF3C121B6E
:101953003DE4F541AB3EAA3FA94075F040E542A402
:101963002541F582E435F0F58312140AFF121A4873
:101973000541E541C3944040DB0542E542C3940879
:0219830040C55D
:01198500223F
:0A1986008F438D448B458A46894744
:10199000E4F548F549F549E5442549FDAF43121BF7
:1019A0003DE4F548AB45AA46A94775F010E549A4C2
:1019B0002548F582E435F0F58312140AFF121A481F
:1019C0000548E548C3941040DB0549E549C3940246
:0219D00040C510
:0119D20022F2
:0A14B8008F308D318B328A33893476
:1014C200E4F535F536F537F538F53985303A8531B5
:1014D2003BAB32AA33A93485388275830012140AD1
:1014E200700302158C24E0F5357009753901853ACF
:1014F20030021587E539703FF537E5312537FDAF05
:1015020030121B3DE4F53675F008E537A42536F5B3
:1015120082E435F0F58375F010E5351214AC121A39
:10152200390536E536C3940840DD0537E537C394FF
:101532000240C77408804AE4F537E53124022537B2
:10154200FDAF30121B3DE4F53675F010E537A425EA
:1015520036F582E435F0F58375F040E5351214ACCA
:10156200E58224F3F582E5833408121A430536E551
:1015720036C3941040D30537E537C3940440BB7497
:0A158200102530F53005380214D3AF
:01158C00223C
:061AB700EF25E0FFD280E4
:101ABD000000000000000000000000000000000019
:0F1ACD00000000000000000000000000000022E8
:0F1C2D00D281D280121ABDC281121ABDC280228A
:0C1C6700C281D280121ABDD281021ABDC7
:0E1C4B00A2019281D280121ABDC280021ABD7F
:101C0B00D280121ABDA2819201C280121ABDA2010A
:011C1B0022A6
:101B5800E4FEEF30E704D2818002C281121AB7C2D4
:0B1B680080121ABD0EBE08EA021C0B22
:101BDB00E4FFD281FE121AB7A281E4334207C2801E
:071BEB00121ABD0EBE08EE48
:011BF20022D0
:061ADC00EF25E0FFD290AF
:101AE20000000000000000000000000000000000F4
:0F1AF200000000000000000000000000000022C3
:0F1C3C00D291D290121AE2C291121AE2C29022F1
:0C1C7300C291D290121AE2D291021AE241
:0E1C5900A2009291D290121AE2C290021AE2F8
:101C1C00D290121AE2A2919201C290121AE2A2017F
:011C2C002295
:101B7300E4FEEF30E704D2918002C291121ADCC274
:0B1B830090121AE20EBE08EA021C1CC1
:101BF300E4FFD291FE121ADCA291E4334207C290B1
:071C0300121AE20EBE08EE0A
:011C0A0022B7
:031C7F0001210040
:101B8E008F088D098B0A121C2DAF08121B58AF0936
:0B1B9E00121B58AF0A121B58021C67F4
:041A8C008F178D180B
:101A9000121C2DAF17121B58AF18121B58121C2DF9
:101AA000E51704FF121B58121BDB8F19D201121C01
:061AB0004B121C67AF1988
:011AB600220D
:101A5F007B077D197FD0121B8EE4FB7D6B7FD0122D
:101A6F001B8E7B067D1A7FD0121B8E7B187D1B7FF2
:0D1A7F00D0121B8E7B017D1C7FD0021B8EC0
:10185300E4F516E516243BFD7FD0121A8C74082597
:1018630016F8A6070516E516C3940E40E6E508F537
:1018730022E509F523E50AF524E50BF525E50CF545
:1018830026E50DF527E50EAD0FFCE41213507B5C46
:101893007AEF79A678431212AEE4FBFA79A878417D
:1018A3001211BA1213898E2E8F2FE510F528E51128
:1018B300F529E512F52AE513F52BE514C454F0F5E3
:0518C3002CE515F52DD8
:0118C80022FD
:1000030000000000000000000000000000000000ED
:10001300000000F800000000000000333000000082
:1000230000100C06100C0600000000000000000089
:1000330040C07840C0784000043F04043F040400FB
:10004300007088FC08300000001820FF211E00000B
:10005300F008F000E018000000211C031E211E0020
:1000630000F00888700000001E21232419272110A6
:1000730010160E0000000000000000000000000049
:10008300000000E0180402000000000718204000F0
:1000930000020418E00000000040201807000000E0
:1000A300404080F0804040000202010F0102020044
:1000B300000000F0000000000101011F0101010028
:1000C300000000000000000080B07000000000008D
:1000D3000000000000000000000101010101010116
:1000E30000000000000000000030300000000000AD
:1000F3000000000080601804006018060100000082
:1001030000F018080818E000000F102030180F0046
:10011300006020F0F80000000000003F3F000000F6
:100123000030180808D870000030383433313000FC
:100133000030180888D870000018102021130E0012
:100143000000806030F8000004070504043F040445
:1001530000F098C8888808000819302030190F006B
:100163000080C0F098800000001F312020301F065F
:100173000008080888E838000000303E030000004B
:1001830000F0888888D87000041F312121311E00B7
:10019300E0F008080898F0000001233A0F0300007C
:1001A300000000C0C000000000000030300000006C
:1001B30000000080000000000000806000000000DC
:1001C30000008040201008000001020408102000F5
:1001D3004040404040404000040404040404040040
:1001E30000081020408000000020100804020100D5
:1001F300007048080808F0000000003036010000D5
:10020300C030C828E810E0000718272423140B0087
:100213000000C038E0000000203C23020227382001
:1002230008F8888888700000203F202020110E00E5
:10023300C0300808080838000718202020100800DC
:1002430008F808080810E000203F202020100F00C5
:1002530008F88888E8081000203F20202320180091
:1002630008F88888E8081000203F200003000000F9
:10027300C03008080838000007182020221E02009A
:1002830008F808000008F808203F210101213F2059
:10029300000808F8080800000020203F2020000084
:1002A30000000808F8080800C08080807F00000074
:1002B30008F888C028180800203F200126382000AD
:1002C30008F8080000000000203F20202020300014
:1002D30008F8F800F8F80800203F003F003F20002E
:1002E30008F830C00008F808203F200007183F0036
:1002F300E01008080810E0000F10202020100F0065
:1003030008F808080808F000203F21010101000057
:10031300E01008080810E0000F18242438504F009C
:1003230008F8888888887000203F2000030C30205C
:1003330000708808080838000038202121221C009A
:10034300180808F8080818000000203F20000000E3
:1003530008F808000008F808001F202020201F00CC
:100363000878880000C83808000007380E0100002C
:10037300F80800F80008F800033C0700073C0300F6
:10038300081868808068180820302C03032C30205C
:100393000838C800C83808000000203F20000000CB
:1003A30010080808C8380800203826212020180023
:1003B300000000FE020202000000007F40404000F7
:1003C300000C30C000000000000000010638C0002F
:1003D30000020202FE000000004040407F000000D7
:1003E30000000402020204000000000000000000FC
:1003F30000000000000000008080808080808080FA
:1004030000020204000000000000000000000000E1
:1004130000008080808000000019242222223F20D7
:1004230008F8008080000000003F112020110E001A
:100433000000008080800000000E112020201100A9
:10044300000000808088F800000E112020103F205B
:100453000000808080800000001F222222221300DF
:10046300008080F0888888180020203F202000002A
:100473000000808080808000006B949494936000DF
:1004830008F8008080800000203F210000203F20EA
:1004930000809898000000000020203F20200000EA
:1004A300000000809898000000C08080807F0000DA
:1004B30008F8000080808000203F24022D302000B7
:1004C300000808F8000000000020203F2020000062
:1004D3008080808080808000203F20003F20003F7C
:1004E3008080008080800000203F210000203F208A
:1004F3000000808080800000001F202020201F003B
:10050300808000808000000080FFA12020110E0069
:100513000000008080808000000E112020A0FF805A
:10052300808080008080800020203F212000010007
:10053300000080808080800000332424242419005C
:10054300008080E0808000000000001F2020000069
:100553008080000000808000001F202020103F20AA
:10056300808080000080808000010E30080601003A
:1005730080800080008080800F300C030C300F00DF
:1005830000808000808080000020312E0E3120000A
:10059300808080000080808080818E70180601003A
:1005A30000808080808080000021302C2221300058
:1005B30000000000807C020200000000003F404079
:1005C30000000000FF00000000000000FF0000002A
:1005D3000002027C800000000040403F0000000059
:1005E30000060101020204040000000000000000F4
:1005F3004458C0FF504C8040B08E808FB040800084
:10060300080601FF01068040300F40807F00000094
:100613000060504C43C0300060504C43C030000079
:1006230040484C4A49484840484C4A494848400099
:1006330020104C4754545454545454D404040000CC
:1006430000000000000000000000000F3040F00038
:100653001060028C0000FE9292929292FE000000C3
:1006630004047E01407E42427E427E42427E40003E
:1006730040404242424242FE4242424242404000E5
:1006830080804020100C0300030C10204080800069
:1006930020104C4754545454545454D4040400006C
:1006A30000000000000000000000000F3040F000D8
:1006B300202020FF202080F88040FF2010F0000041
:1006C3001030100F0808003F40405F424443780059
:1006D300202020FF202000F80000FF4040400000C1
:1006E3001030100F0848407F40407F40404040009A
:1006F30000000000000000000000000000000000F7
:100703000F1F3F7FFEFCF8F0E0C0800000000000F8
:1007130000000000000080C0E0F0F8FCFE7F3F1FF7
:100723000F000000000000000000000000000000B7
:1007330000C0F0F8F8FCFCFCFEFEFEFEFEFEFEFE32
:10074300FEFEFEFEFEFFFFFFFFFFFFFFFEFEFEFEBF
:10075300FEFEFEFEFEFFFFFFFFFFFFFFFEFEFEFEAF
:10076300FEFEFEFEFEFEFEFEFEFCFCFCF8F0E0C01C
:10077300FFFFFFFFFFFFFF03010100000000000078
:100783000000000000000000000000000000000066
:100793000000000000000000000000000000000056
:1007A30000000000000000010307FFFFFFFFFFFF41
:1007B300FFFFFFFFFFFFFF0000000060F0F0F0F01D
:1007C300F0F8F8F8F8F8FCFCFC600000000000000A
:1007D3000000000000000060FCFCFCF8F8F8F8F8EA
:1007E300F0F0F0F0F06000000000FFFFFFFFFFFFFC
:1007F300FFFFFFFFFFFFFF000000000003030303F1
:1008030001010101000000000000000000000000E1
:1008130000000000000000000000000000010101D2
:1008230001010303030000000000FFFFFFFFFFFFC0
:10083300FFFFFFFFFFFFFF000000000000000000BC
:100843000000000000000000183C38707070383E53
:100853001F3C787070383C1C18000000000000003A
:1008630000000000000000000000FFFFFFFFFFFF8B
:100873007FFFFFFFFFFFFFF0E0C0C0C0C0C0C0C0EC
:10088300C0C0C0C0C0C0C0C0C0C0C0C0C0C0C0C065
:10089300C0C0C0C0C0C0C0C0C0C0C0C0C0C0C0C055
:1008A300C0C0C0C0C0C0C0C0E0F8FFFFFFFFFFFF73
:1008B300000103070F0F1F1F1F1F1F1F3FFFFFFF16
:1008C300FFFFFF3F1F1F1F1F1F1F1F1F1F1F1F1F75
:1008D3001F1F1F1F1F1F1F1F1F1F1F1F1F3FFFFF45
:1008E300FFFFFFFF7F1F1F1F1F1F1F0F0F070300A8
:1008F30000000000000000000000000000000000F5
:1009030000000000000000000000000000000000E4
:1009130000000000000000000000000000000000D4
:1009230000000000000000000000000000000000C4
:10093300000000000000C0C0C0C0000000000000B4
:100943000000000000000FFFFF1F00000000000078
:10095300000000000000001F1F0000000000000056
:10096300000000000000060F0F060000000000005A
:1009730000000080E0783C1C80E0783C1C00000014
:10098300000003010000000301000000000000005C
:100993000000000000000000000000000000000054
:1009A3000000000000000000000000000000000044
:1009B3000000000000C0000000000000C0000000B4
:1009C30000383838F83F3838383838F83F38380086
:1009D300007070F0FF7070707070F0FF70707000D6
:1009E3000000000F0000000000000F0000000000E6
:1009F30000000000808040F0404080800000000044
:100A03000000001E7FF0C0FF00000C0F0F0000006D
:100A13000000C0C0C00001FF07071EFCF00000007B
:100A2300000003070408087F080C06030100000008
:100A33000080C040C0800000000000C00000000033
:100A43007EFF000000FF7E00E01C030000000000AA
:100A53000001030283611C03F8FE030103FEF80097
:100A63000000000C0300000001070C080C07010044
:100A730000000080C04040C00000000000000000F3
:100A830000007FFFC080603F0F00000000000000F7
:100A9300F8FC03030F3E78E08081710F0101000031
:100AA3000103060C0808080503070E0C0C060300D7
:100AB30000001C1CFC780000000000000000000087
:100AC300000203010000000000000000000000001D
:100AD3000000000000000000000000000000000013
:100AE3000000000000000000000000000000000003
:100AF30000000000000000000000C0603008040097
:100B030000000000000000F0FC0F010000000000E6
:100B1300000000000000001F7FE000000000000054
:100B230000000000000000000001070C1820400036
:100B33000004083060C00000000000000000000056
:100B43000000000000010FFCF000000000000000A6
:100B5300000000000000E0FF1F0000000000000094
:100B6300004020180C0701000000000000000000F6
:100B73000000000000000000000000000000000072
:100B83000000183830604086FF8F4060303818000E
:100B93000000181C0C0602F1FFE102060C1C1800F1
:100BA3000000000000000000000000000000000042
:100BB3000000000000000000000000000000000032
:100BC3000000000000000000FE0000000000000024
:100BD3000000010101010101FF0101010101010007
:100BE3000000000000000000000000000000000002
:100BF30000000000000000000000000000000000F2
:100C030000000000000000000000000000000000E1
:100C130000000000000000000000000000000000D1
:100C23000080C7473F1E00000000000000000000D6
:100C330000000000000000000000000000000000B1
:100C430000000000000000000000000000000000A1
:100C53000001010101010101010101010101010083
:100C63000000000000000000000000000000000081
:100C73000000000000000000000000000000000071
:100C83000000000000000000000000000000000061
:100C93000000000000000000000000000000000051
:100CA3000000060F0F060000000000000000000017
:100CB300000000000000000000000000C0701800E9
:100CC3000000000000000000C0701C0701000000CD
:100CD30000000000C0701C070100000000000000BD
:100CE30000301C07010000000000000000000000AD
:100CF300000000000080C040404080000000000071
:100D03000000F0FE0F01000000000107FEF00000EC
:100D130000003FFFC000000000000080FF3F000014
:100D23000000000103060C08080806030100000088
:100D33000000000000000080C00000000000000070
:100D430000000001010101FFFF000000000000009E
:100D530000000000000000FFFF0000000000000092
:100D63000000000808080C0F0F0C0808080000001A
:100D730000000000804040404040C08080000000F0
:100D830000001E1900000000000000C1FF3E00002B
:100D930000000000804030180C06030100C0000072
:100DA30000000E0D0C0C0C0C0C0C0C0C0E030000B4
:100DB300000000808040404040C0800000000000F0
:100DC30000000F0F000000000080C17F3E00000004
:100DD3000000C0C00000010101030206FCF0000096
:100DE30000000307040808080808040603000000BD
:100DF300000000000000000000C0C0000000000070
:100E0300000000008060100C03FFFF0000000000E2
:100E130000302C262120202020FFFF20202000004E
:100E23000000000000000808080F0F080808000071
:100E330000000000C0C0C0C0C0C0C0C0C0C000002F
:100E4300000000FF008040404040C08000000000E0
:100E53000000C0C30100000000000001FFFC00000F
:100E6300000003040408080808080407030000003E
:100E7300000000000080804040404080800000006F
:100E83000000E0FC0781C0404040C0830300000035
:100E930000007FFF8300000000000001FFFC000052
:100EA3000000000107060C0808080C0603000000F8
:100EB300000000C0C0C0C0C0C0C0C0C0C0C00000EF
:100EC30000000E030000000000E01806010000000F
:100ED300000000000000C0FC030000000000000050
:100EE3000000000000000F0F0000000000000000E1
:100EF3000000000080C040404040C080000000006F
:100F030000003E7FF1C0C080000080417F1E0000D2
:100F130000F0FC0E0201010103070E1EFCF00000AD
:100F2300000103060408080808080406030100007A
:100F330000000080804040404040800000000000EE
:100F430000FCFF030000000000000003FEF80000A7
:100F5300000103070C080808080406E17F1F0000CE
:100F630000000707080808080C060301000000003A
:100F7300000000000000000000000000000000006E
:100F8300000000000000C0E0E0C00000000000001E
:100F9300000000000000000101000000000000004C
:100FA300000000000000060F0F0600000000000014
:100FB300000000000000000000000000000000002E
:100FC300000000000000000000000000000000001E
:100FD300000000000000000000000000000000000E
:100FE30000000000000000C0C0C08000000000003E
:100FF30000000000000000000000000000000000EE
:10100300000000000000008080D0E0E0F0F0F0F885
:10101300F8F8F8F8F8F0F0F0F0E0E0C080A0000095
:10102300000080E0F8FEFF7F1F0F030000000000B8
:1010330000000000000000000000000000000000AD
:101043000000C0F0F8FCFF7F9F0F070303010101BD
:1010530001010101010101030307070F1FBF7FFE08
:10106300FCFF7F3F0F1301000000000000000000A1
:10107300000000000000000000000000000000C0AD
:10108300F8FFFFFF3F070100000000C0F0F8FCFC81
:101093007EBE3E3EBE7E7EFCF8F0E0C00000000057
:1010A300000001000000000000000000000000003C
:1010B300000000000000000000000080E0FCFFFFD3
:1010C300FFFFFFFF00000000000018FFFFFFFFC04D
:1010D3008000000000800001073FFFFFFFF80000D1
:1010E30000000000000000000000000000000000FD
:1010F3000000000000000000C0F0FCFFFF3F4701BC
:10110300073FFFFFFFF0C0000000000403070F1FAD
:101113001F3F3F3F1F1E000000C0FFFFFFFF0000F7
:1011230000000000000000000000000000000000BC
:101133000000000000C0F8FEFFFFFFC7C0E0E0E0D2
:10114300E0E0E4E3EFFFFFFFFEFCF8F4F0F0E0E0A3
:10115300E0E0F0F4F0F8FCFCFF7F3F0F0700000035
:10116300000000000000000000000000000000007C
:10117300000000000003030303030303030303034B
:10118300030303030303030303030303030303032C
:10119300030303030301010000000000000000003B
:1011A300000000000000000000000000000000003C
:0300000002174E96
:0C174E00787FE4F6D8FD758149021795FC
:1011B3000213F5E86480F8E933E83360110460F062
:1011C300ED33EC337009E8FCE9FDEAFEEBFF2204A2
:1011D30060DED3EB9FEA9EE99DE8C2E78CF0C2F79D
:1011E30095F0400CE8CCF8E9CDF9EACEFAEBCFFB69
:1011F3001213C085D0F05804700320D5B3E80470EF
:10120300075002B2D50213FF92D5EC0460F7E4CC89
:10121300C0E0C398F8603B94186008400DD0E0FB31
:101223000213D7E4FBFAC9FC8028E830E406E4C9DA
:10123300FBE4CAFCE830E305E4C9CACBFCE8540785
:101243006010F8C3E913F9EA13FAEB13FBEC13FC90
:10125300D8F130F52FC3E49CFCEF9BFFEE9AFEED33
:1012630099FDD0E0FBEF4E4D4C701222DB030213CD
:10127300FCEC2CFCEF33FFEE33FEED33FDED30E7FA
:10128300EB0213D7EF2BFFEE3AFEED39FDD0E0FB77
:1012930050130BBB00030213FFED13FDEE13FEEF20
:0812A30013FFEC13FC0213D74A
:1012AB000213FFEC5D046005E8590470030213F5AB
:1012BB001213C0580460F6EC4860F2EC7004FDFEAB
:1012CB00FF22C860DB2481C85009C3986002500616
:1012DB000213FC9850CAF582E9294B4A7005AB8280
:1012EB000213EB75F0007C1A7880C3EF9BEE9AED3E
:1012FB0099400DC3EF9BFFEE9AFEED99FDE842F08E
:10130B00DC23ACF0D0E0FFD0E0FED0E0FDAB8220E0
:10131B00E7101BEB60BAEC2CFCEF33FFEE33FEED6A
:10132B0033FD0213D7E803F830E705C0F075F00082
:10133B00EF2FFFEE33FEED33FD40B830E7C280AA4E
:10134B0075F020800E75F010800575F0087D007E1D
:10135B00007F003392D530D50312149EEC3340102E
:10136B00EF33FFEE33FEED33FDEC33FCD5F0ED2226
:0E137B00E5F0247EA2D513CC92E7CDCEFF2262
:10138900EDD2E7CD33EC3392D524814006E4FFFE5C
:10139900FDFC22FCE4CFCECDCC24E0501174FF80BB
:1013A900EDC3CC13CCCD13CDCE13CECF13CF047058
:0713B900F030D5DE02149EA6
:1013C000E9D2E7C933E833F892D5EDD2E7CD33EC73
:0713D00033FC5002B2D522EC
:1013D700EC30E7100FBF000C0EBE00080DBD000477
:1013E7000BEB6014A2D5EB13FCED92E7FD2274FF23
:1013F700FCFDFEFF22E480F8A2D574FF13FC7D807C
:03140700E480EF8F
:10175A000217DAE493A3F8E493A34003F68001F2B4
:10176A0008DFF48029E493A3F85407240CC8C33390
:10177A00C4540F4420C8834004F456800146F6DF5F
:10178A00E4800B0102040810204080901C7FE47E54
:10179A00019360BCA3FF543F30E509541FFEE49354
:1017AA00A360010ECF54C025E060A840B8E493A31B
:1017BA00FAE493A3F8E493A3C8C582C8CAC583CA46
:1017CA00F0A3C8C582C8CAC583CADFE9DEE780BEFE
:011C82000061
:10140A00BB010CE58229F582E5833AF583E0225097
:10141A0006E92582F8E622BBFE06E92582F8E222E1
:0D142A00E58229F582E5833AF583E49322FB
:10143700EF8DF0A4A8F0CF8CF0A428CE8DF0A42EC9
:02144700FE2283
:10144900BC000BBE0029EF8DF084FFADF022E4CC87
:10145900F875F008EF2FFFEE33FEEC33FCEE9DEC50
:10146900984005FCEE9DFE0FD5F0E9E4CEFD22ED96
:10147900F8F5F0EE8420D21CFEADF075F008EF2FE0
:10148900FFED33FD4007985006D5F0F222C398FDD1
:051499000FD5F0EA226E
:0E149E00C3E49FFFE49EFEE49DFDE49CFC225F
:0C14AC00A42582F582E5F03583F583224B
:00000001FF
